:100000000A128A11F82F00308A000408840A820735
:1000100000344134643463345F34523465346334BF
:0C00200065346934763465343A340034B9
:100DDC00831203138C1EF32EF42EEE2E1A08080029
:100DEC00831603130713871726309800903083124D
:100DFC000313980081308316031399000800F20046
:100E0C008312031307147208880087142130F10031
:100E1C007630F000F00B102FF10B102F0000FD308E
:100E2C00F00070088312031387050800F200FE30EF
:100E3C00F00070088312031387057208880087146A
:100E4C002130F1007630F000F00B2A2FF10B2A2F15
:100E5C000000FD30F00070088312031387050800B2
:100E6C00F400482F740884000A128A1103200A1215
:100E7C008A110A128A1105270A128A110130F3000D
:100E8C007308F407740884000A128A1103200A12EA
:100E9C008A11003A031D532F542F382F0800FC30B1
:100EAC00F300730883160313870588018230F4005E
:100EBC00DD30F300F30B602FF40B602F652F38300F
:100ECC000A128A111C270A128A110C300A128A1172
:100EDC001C270A128A1106300A128A111C270A12C0
:100EEC008A1101300A128A111C270A128A11080071
:100EFC00F7000A128A11EE260A128A11F6003A300D
:100F0C007606031D8A2F8B2FB52FF801F901A72F19
:100F1C000A128A11EE260A128A11F200F3017808DD
:100F2C00F40074077707F5007508840072088000D8
:100F3C00840A730880000130F8070318F90A00309E
:100F4C00F9077908803AF2007108803A7202031DA1
:100F5C00B12F70087802031CB42FB52F8E2F080008
:100F6C000A128A11F6260A128A110A128A115527B8
:100F7C000A128A1180300A128A111C270A128A114D
:100F8C0001300A128A1136270A128A110430F00035
:100F9C000030F1007A300A128A117E270A128A1167
:100FAC00C0300A128A111C270A128A117A080A12F6
:100FBC008A1105270A128A117B080A128A11052741
:100FCC000A128A117C080A128A1105270A128A1140
:100FDC007D080A128A1105270A128A11CC2F0A12CF
:100FEC008A11002883120313A001A10183010A12A4
:040FFC008A11B62F71
:08400000FF3FFF3FFF3FFF3FC0
:02400E003A3F37
:00000001FF
