:100000000A128A11F82F00308A000408840A820735
:1000100000344134643463345F34543472346134B2
:0E0020006E3473346D34693474343A34003401
:100C20008530831203139F008430831603139F00C3
:100C30000800F000831203130C1E1F2E202E1A2E04
:100C400070089900080083160313071387172630CE
:100C50009800903083120313980081308316031399
:100C600099000800F2008312031307147208880029
:100C700087142130F1007630F000F00B3D2EF10B9F
:100C80003D2E0000FD30F00070088312031387052D
:100C90000800831203131F152130F3007630F20091
:100CA000F20B502EF30B502E0000831203131F196A
:100CB0005A2E5B2E552E1E08F100831603131E08B4
:100CC000F0000800F200FE30F000700883120313F9
:100CD00087057208880087142130F1007630F00013
:100CE000F00B702EF10B702E0000FD30F00070083C
:100CF0008312031387050800F4008E2E7408840005
:100D00000A128A1103200A128A110A128A11322643
:100D10000A128A110130F3007308F4077408840082
:100D20000A128A1103200A128A11003A031D992E11
:100D30009A2E7E2E0800FC30F300730883160313EE
:100D4000870588018230F400DD30F300F30BA62E16
:100D5000F40BA62EAB2E38300A128A1162260A1224
:100D60008A110C300A128A1162260A128A11063080
:100D70000A128A1162260A128A1101300A128A1195
:100D800062260A128A110800780879040319C92E0C
:100D9000CA2EF92EFD01FD0AD82E01300310F80DE0
:100DA000F90DFF3E031DCE2E0130FC007C08FD072F
:100DB000F91FDB2EDC2ECD2E79087B02031DE22EDF
:100DC00078087A02031CE52EE62EEC2E7808FA024B
:100DD0007908031CFB03FB0201300310F90CF80C2B
:100DE000FF3E031DED2E0130FD02031DF82EF92EEE
:100DF000DC2E7B08F9007A08F80008000A128A1134
:100E000023260A128A110A128A1110260A128A113E
:100E10000A128A119B260A128A1180300A128A113C
:100E200062260A128A1101300A128A117C260A12DD
:100E30008A110A128A1149260A128A11710883122C
:100E40000313A1007008A000C0300A128A116226A4
:100E50000A128A11831203132108A3002008A2009A
:100E60000A128A1185270A128A1183120313200895
:100E70000A128A1119260A128A11192F0A128A11C6
:100E80000028F501F601700871040319482F492F55
:100E9000802FF701F70A572F01300310F00DF10DE5
:100EA000FF3E031D4D2F0130F4007408F707F11FBA
:100EB0005A2F5B2F4C2F01300310F50DF60DFF3E1E
:100EC000031D5C2F71087302031D682F70087202E6
:100ED000031C6B2F6C2F732F7008F2027108031C18
:100EE000F303F302751401300310F10CF00CFF3E14
:100EF000031D742F0130F702031D7F2F802F5B2FFE
:100F00007608F1007508F0000800E830F0000330C2
:100F1000F100831203132308F3002208F2000A12DF
:100F20008A1141270A128A117008303E0A128A116A
:100F300032260A128A110A30F8000030F9006430B3
:100F4000F0000030F100831203132308F30022089D
:100F5000F2000A128A1141270A128A117108FB0055
:100F60007008FA000A128A11C4260A128A11780837
:100F7000303E0A128A1132260A128A110A30F8000B
:100F80000030F9000A30F0000030F1008312031342
:100F90002308F3002208F2000A128A1141270A12DC
:100FA0008A117108FB007008FA000A128A11C4261F
:100FB0000A128A117808303E0A128A1132260A1261
:100FC0008A110A30F8000030F90083120313230855
:100FD000FB002208FA000A128A11C4260A128A119A
:100FE0007808303E0A128A1132260A128A11080045
:100FF00083120313A001A10183010A128A11FE2E9C
:08400000FF3FFF3FFF3FFF3FC0
:02400E003A3F37
:00000001FF
